:100000000C94FE000C940E010C940E010C940E0145
:100010000C940E010C940E010C940E010C940E0124
:100020000C940E010C940E010C940E010C940E0114
:100030000C940E010C940E010C940E010C940E0104
:100040000C940E010C940E010C940E010C940E01F4
:100050000C940E010C940E010C940E010C940E01E4
:100060000C940E010C940E010C940E010C940E01D4
:100070000C940E010C940E010C940E010C940E01C4
:100080000C940E010C940E010C940E010C940E01B4
:100090000C940E010C940E010C940E010C940E01A4
:1000A0000C940E010C940E010C940E010C940E0194
:1000B0000C940E010C940E010C940E010C940E0184
:1000C0000C940E010C940E010C940E010C940E0174
:1000D0000C940E010C940E010C940E010C940E0164
:1000E0000C940E010C940E010C940E010C940E0154
:1000F0000C940E010C940E010C940E010C940E0144
:100100000C940E010C940E010C940E010C940E0133
:100110000C940E010C940E010C940E010C940E0123
:100120000C940E010C940E010C940E010C940E0113
:100130000C940E010C940E010C940E010C940E0103
:100140000C940E010C940E010C940E010C940E01F3
:100150000C940E010C940E010C940E010C940E01E3
:100160000C940E010C940E010C940E010C940E01D3
:100170000C940E010C940E010C940E010C940E01C3
:100180000C940E010C940E010C940E010C940E01B3
:100190000C940E010C940E010C940E010C940E01A3
:1001A0000C940E010C940E010C940E010C940E0193
:1001B0000C940E010C940E010C940E010C940E0183
:1001C0000C940E010C940E010C940E010C940E0173
:1001D0000C940E010C940E010C940E010C940E0163
:1001E0000C940E010C940E010C940E010C940E0153
:1001F0000C940E010C940E010C940E0111241FBEE0
:10020000CFEFCDBFDFE3DEBF00E00CBF18BE19BEED
:100210001ABE1BBE0E9410010C94AE010C9400008B
:10022000AF92BF92CF92DF92EF92FF920F931F9304
:10023000CF93DF93CDB7DEB76097CDBFDEBF198216
:100240001A821B821C821D821E821F8218861986BA
:100250001A861B861C861D861E861F86188A3DC030
:1002600029813A814B815C816D817E818F81988566
:10027000A984BA84CB84DC84ED84FE840F8518893C
:100280000E949901A22EB32EC42ED52EE62EF72E53
:10029000082F192FA982BA82CB82DC82ED82FE82DE
:1002A0000F83188729853A854B855C856D857E850A
:1002B0008F859889A1E00E94A201A22EB32EC42EA0
:1002C000D52EE62EF72E082F192FA986BA86CB86B3
:1002D000DC86ED86FE860F87188BA984BA84CB84D2
:1002E000DC84ED84FE840F8518892A2D3B2D4C2D4E
:1002F0005D2D6E2D7F2D802F912F2F3734484E414D
:100300005105610571058105910509F008F4A8CF33
:10031000989589819A816096CDBFDEBFDF91CF919C
:100320001F910F91FF90EF90DF90CF90BF90AF9013
:1003300008952A0D3B1D4C1D5D1D6E1D7F1D801FE8
:10034000911F08950024A7FD00942A0F301D401D21
:10035000501D601D701D801D901D0895F894FFCFE5
:00000001FF
