:100000000C9400010C941E010C941E010C941E0112
:100010000C941E010C941E010C941E010C941E01E4
:100020000C941E010C941E010C941E010C941E01D4
:100030000C941E010C941E010C941E010C941E01C4
:100040000C941E010C941E010C941E010C941E01B4
:100050000C941E010C941E010C941E010C941E01A4
:100060000C941E010C941E010C941E010C941E0194
:100070000C941E010C941E010C941E010C941E0184
:100080000C941E010C941E010C941E010C941E0174
:100090000C941E010C941E010C941E010C941E0164
:1000A0000C941E010C941E010C941E010C941E0154
:1000B0000C941E010C941E010C941E010C941E0144
:1000C0000C941E010C941E010C941E010C941E0134
:1000D0000C941E010C941E010C941E010C941E0124
:1000E0000C941E010C941E010C941E010C941E0114
:1000F0000C941E010C941E010C941E010C941E0104
:100100000C941E010C941E010C941E010C941E01F3
:100110000C941E010C941E010C941E010C941E01E3
:100120000C941E010C941E010C941E010C941E01D3
:100130000C941E010C941E010C941E010C941E01C3
:100140000C941E010C941E010C941E010C941E01B3
:100150000C941E010C941E010C941E010C941E01A3
:100160000C941E010C941E010C941E010C941E0193
:100170000C941E010C941E010C941E010C941E0183
:100180000C941E010C941E010C941E010C941E0173
:100190000C941E010C941E010C941E010C941E0163
:1001A0000C941E010C941E010C941E010C941E0153
:1001B0000C941E010C941E010C941E010C941E0143
:1001C0000C941E010C941E010C941E010C941E0133
:1001D0000C941E010C941E010C941E010C941E0123
:1001E0000C941E010C941E010C941E010C941E0113
:1001F0000C941E010C941E010C941E010C94F60329
:1002000011241FBECFEFCDBFDFE3DEBF00E00CBF88
:1002100018BE19BE1ABE1BBE10E2A0E0B0E2E8EEA6
:10022000F9E000E00BBF02C007900D92A031B107CA
:10023000D9F71BBE0E94F7020C94F2040C94000044
:10024000CF93DF93CDB7DEB798950000DF91CF91C4
:1002500008952F923F924F925F926F927F928F926A
:100260009F92AF92BF92CF92DF92EF92FF920F9345
:100270001F93CF93DF93CDB7DEB7E097CDBFDEBF3F
:10028000298F3A8F4B8F5C8F6D8F7E8F8F8F98A3C6
:10029000A9A2BAA2CBA2DCA2EDA2FEA20FA318A72C
:1002A00089A189838AA18A838BA18B838CA18C836A
:1002B0008DA18D838EA18E838FA18F8388A5888742
:1002C00081E089871A861B861C861D861E861F86EE
:1002D000188A898D898B8A8D8A8B8B8D8B8B8C8DDF
:1002E0008C8B8D8D8D8B8E8D8E8B8F8D8F8B88A132
:1002F000888F89A189838AA18A838BA18B838CA112
:100300008C838DA18D838EA18E838FA18F8388A5F1
:100310008887F0C08981982F917099A78A81982F3A
:1003200090709AA78B81982F90709BA78C81982FA3
:1003300090709CA78D81982F90709DA78E81982F8B
:1003400090709EA78F81982F90709FA78885982F77
:10035000907098AB29A53AA54BA55CA56DA57EA587
:100360008FA598A9A0E00E94D70409F454C0A988D9
:10037000BA88CB88DC88ED88FE880F89188D29859E
:100380003A854B855C856D857E858F8598890E9431
:100390008F03A22EB32EC42ED52EE62EF72E082FB5
:1003A000192F2A2C3B2C4C2C5D2C6E2C7F2C802E54
:1003B000912E2796AFAC27972896BFAC2897299601
:1003C000CFAC29972A96DFAC2A972B96EFAC2B97C8
:1003D0002C96FFAC2C972D960FAD2D972E961FAD1A
:1003E0002E97222D332D442D552D662D772D882DBA
:1003F000992D0E94E803A22EB32EC42ED52EE62EF0
:10040000F72E082F192FA986BA86CB86DC86ED86B3
:10041000FE860F87188BA988BA88CB88DC88ED8880
:10042000FE880F89188D29893A894B895C896D89E5
:100430007E898F89988D0E948F03A22EB32EC42EA1
:10044000D52EE62EF72E082F192F2A2C3B2C4C2CBC
:100450005D2C6E2C7F2C802E912E2796AFAC27978B
:100460002896BFAC28972996CFAC29972A96DFAC5F
:100470002A972B96EFAC2B972C96FFAC2C972D96AA
:100480000FAD2D972E961FAD2E97222D332D442D77
:10049000552D662D772D882D992D0E94E803A22ECB
:1004A000B32EC42ED52EE62EF72E082F192FA98A8B
:1004B000BA8ACB8ADC8AED8AFE8A0F8B188F298153
:1004C0003A814B815C816D817E818F81988501E0CD
:1004D0000E94B904A22EB32EC42ED52EE62EF72EDE
:1004E000082F192FA982BA82CB82DC82ED82FE828C
:1004F0000F831887A980BA80CB80DC80ED80FE80D6
:100500000F8118852A2D3B2D4C2D5D2D6E2D7F2DB5
:10051000802F912FA0E00E94D70409F0FBCE298400
:100520003A844B845C846D847E848F84988827967B
:10053000AFAC27972896BFAC28972996CFAC2997C0
:100540002A96DFAC2A972B96EFAC2B972C96FFAC14
:100550002C972D960FAD2D972E961FAD2E97222DF1
:10056000332D442D552D662D772D882D992D0E94E4
:10057000E803222E332E442E552E662E772E882EFB
:10058000992EA22CB32CC42CD52CE62CF72C082D9C
:10059000192D2A2D3B2D4C2D5D2D6E2D7F2D802F5D
:1005A000912FA22EB32EC42ED52EE62EF72E082F75
:1005B000192F2A2D3B2D4C2D5D2D6E2D7F2D802F3B
:1005C000912FE096CDBFDEBFDF91CF911F910F91AC
:1005D000FF90EF90DF90CF90BF90AF909F908F9063
:1005E0007F906F905F904F903F902F9008952F9243
:1005F0003F924F925F926F927F928F929F92AF92B3
:10060000BF92CF92DF92EF92FF920F931F93CF93FF
:10061000DF93CDB7DEB72897CDBFDEBF209108208E
:100620003091092040910A2050910B2060910C20BC
:1006300070910D2080910E2090910F20A22EB32E4C
:10064000C42ED52EE62EF72E082F192F209100202C
:1006500030910120409102205091032060910420AC
:10066000709105208091062090910720222E332E34
:10067000442E552E662E772E882E992E812F8F93FD
:10068000802F8F938F2D8F938E2D8F938D2D8F9302
:100690008C2D8F938B2D8F938A2D8F93A22CB32C1F
:1006A000C42CD52CE62CF72C082D192D24E332E18F
:1006B00040E050E060E070E080E090E00E942901BE
:1006C000EDB7FEB73896CDBFDEBFA22EB32EC42E37
:1006D000D52EE62EF72E082F192FA982BA82CB82AB
:1006E000DC82ED82FE820F8318870E9420018981BF
:1006F0009A812896CDBFDEBFDF91CF911F910F91D8
:10070000FF90EF90DF90CF90BF90AF909F908F9031
:100710007F906F905F904F903F902F900895DF9360
:10072000CF931F930F939A9DF02D219FF00D8B9DDA
:10073000F00D8A9DE02DF10D039FF00D029FE00D5D
:10074000F11D4E9DE00DF11D5E9DF00D4F9DF00DD4
:100750007F936F93BF92AF925F934F93D5010E94A7
:10076000E3048B01AC01D7010E94E304EB01E80F25
:10077000F91FD6010E94DF032F913F91D6010E94FD
:10078000E304C60FD71FE81FF91FAF91BF910E9466
:10079000DF032F913F910E94E304C60FD71FE81F8C
:1007A000F91FD6010E94E304E60FF71F9801BE016E
:1007B000CF0111240F911F91CF91DF9108950E94D5
:1007C000E304460F571FC81FD91F08F43196089538
:1007D000689401C0E894F92FF12B12F00C941C04DA
:1007E000A0E0B0E0E6EFF3E00C948E04092E05944F
:1007F00022F40E947804112392F4F0E80F26FFEF10
:10080000E094F09400951095B094C094D094A19485
:10081000BF0ACF0ADF0AEF0AFF0A0F0B1F0B0E9465
:10082000270407FC0E947804CDB7DEB7ECE00C94F7
:10083000A704689401C0E8948F929F92CF93DF93AE
:100840000E942704DF91CF919F908F900895882474
:100850009924F401E401B0E49F93AA279A158B042C
:100860009C04ED05FE05CF05D007A10798F4AD2F38
:10087000DC2FCF2FFE2FE92D982C892E982F872F34
:10088000762F652F542F432F322F2227B85031F760
:10089000BF9127C01B2EBF91BB27220F331F441FC0
:1008A000551F661F771F881F991F881C991CEE1FF4
:1008B000FF1FCC1FDD1FAA1FBB1F8A149B04EC0562
:1008C000FD05CE05DF05A007B10748F08A189B0893
:1008D000EC09FD09CE09DF09A00BB10B21601A94C8
:1008E000E1F62EF49401AF01BE01CD01000C089594
:1008F000609570958095909530954095509521958F
:100900003F4F4F4F5F4F6F4F7F4F8F4F9F4F089518
:100910002F923F924F925F926F927F928F929F920F
:10092000AF92BF92CF92DF92EF92FF920F931F93FD
:10093000CF93DF93CDB7DEB7CA1BDB0BCDBFDEBFD6
:1009400019942A88398848885F846E847D848C84D1
:100950009B84AA84B984C884DF80EE80FD800C81EA
:100960001B81AA81B981CE0FD11DCDBFDEBFED01A4
:10097000089597FB10F8169400080F93083098F02C
:100980000850232F342F452F562F672F782F892F6C
:10099000902DF4CF05949795879577956795579502
:1009A0004795379527950A95AAF70F910895002442
:1009B000A7FD00942A173005400550056005700515
:1009C000800590050895A29FB001B39FC001A39F29
:1009D000700D811D1124911DB29F700D811D112478
:0809E000911D0895F894FFCF6A
:1009E800697A000000000000FF6890A50000000080
:00000001FF
